:100000000C9462000C94E8080C94C1080C948A00CB
:100010000C948A000C948A000C948A000C948A0038
:100020000C948A000C948A000C948A000C948A0028
:100030000C948A000C948A000C948A000C948A0018
:100040000C9477080C948A000C9435090C940F09D1
:100050000C948A000C948A000C948A000C948A00F8
:100060000C948A000C948A000000000023002600F3
:10007000290000000000240027002A0000000000E2
:10008000250028002B0004040404040404040202D4
:100090000202020203030303030301020408102007
:1000A0004080010204081020010204081020000012
:1000B0000008000201000003040700000000000027
:1000C0000000670911241FBECFEFD8E0DEBFCDBF0F
:1000D00012E0A0E0B1E0E2ECFBE102C005900D927D
:1000E000AC31B107D9F723E0ACE1B2E001C01D9219
:1000F000A630B207E1F710E0C2E6D0E004C02197D5
:10010000FE010E94CC0DC136D107C9F70E949409A7
:100110000C94DF0D0C940000EDEBF0E02491E9EA83
:10012000F0E09491E5E9F0E0E491EE23C9F02223B8
:1001300039F0233001F1A8F4213019F1223029F1EE
:10014000F0E0EE0FFF1FE458FF4FA591B4912FB7D9
:10015000F894EC91811126C090959E239C932FBF1B
:1001600008952730A9F02830C9F0243049F72091AC
:1001700080002F7D03C0209180002F772093800086
:10018000DFCF24B52F7724BDDBCF24B52F7DFBCF68
:100190002091B0002F772093B000D2CF2091B000F3
:1001A0002F7DF9CF9E2BDACF8230F8F4E82FF0E0E4
:1001B000EE0FFF1FE050FF4F27E531E03183208332
:1001C000813041F0809169008C7F682B60936900D9
:1001D000E89A089580916900837F660F771F660F04
:1001E000771F682B60936900E99A0895CF93DF9396
:1001F00090E0FC01E656FF4F24918A579F4FFC0187
:1002000084918823C9F090E0880F991FFC01EE5873
:10021000FF4FA591B491FC01E458FF4FC591D491D3
:1002200061110DC09FB7F8948C91209582238C9317
:100230008881282328839FBFDF91CF910895623062
:1002400051F49FB7F8943C91822F809583238C932F
:10025000E8812E2BEFCF8FB7F894EC912E2B2C93B7
:100260008FBFEACF3FB7F89480915D0290915E0214
:10027000A0915F02B091600226B5A89B05C02F3FF8
:1002800019F00196A11DB11D3FBFBA2FA92F982FBC
:100290008827BC01CD01620F711D811D911D42E0B7
:1002A000660F771F881F991F4A95D1F70895FF920F
:1002B0000F931F93CF93DF930E94320120911F026F
:1002C00030912002EB01C21BD30B2091230230910D
:1002D0002402C217D30708F45FC04091270250914F
:1002E00028024130510561F0E0915002F091510235
:1002F00020813091520223233091210223134CC0DC
:100300007093200260931F02009125021091260233
:100310004230510509F412C14330510509F44DC171
:100320004130510561F480911E02813009F446C0CC
:10033000C0F1833009F481C0843009F4C8C08091D1
:10034000270290912802019739F1C017D10708F0D0
:100350006EC180911C028F5F80931C028B30E0F095
:1003600081E090E0909328028093270261E070E0A2
:1003700080914E020E94D4001092210210921E021F
:1003800082E590E0909326028093250283E290E03C
:100390009093240280932302CDB7DEB7E5E00C945E
:1003A000AA0DC017D10730F481E080931E02C093DC
:1003B0001D02C5CF84E080931E02C1CFC017D107B4
:1003C000D0F510921E0280911C028F5F80931C0258
:1003D00020911D028C2F0C2E000C990B821B910971
:1003E00027FD939597FF03C09195819591094997B2
:1003F0009CF2109228021092270282E990E09093DA
:1004000026028093250282E590E090932402809357
:10041000230210921C02F09022026F2D70E0809156
:100420004E020E94D4008091520293E0F91227C03C
:100430008093210284CF83E0BECFC017D10708F597
:10044000109228021092270282E990E090932602EF
:100450008093250282E590E090932402809323020A
:1004600010921C02F09022026F2D70E080914E02DB
:100470000E94D4008091520233E0F316C9F280E06A
:10048000D7CF90912202933009F482E08093220228
:1004900082E090E0909328028093270282E990E026
:1004A000909326028093250282E590E090932402A7
:1004B0008093230210922D0280911C0280932E02C1
:1004C00010922A0210922C0210922B02CBCFC0174E
:1004D000D107A8F4109228021092270282E990E036
:1004E000909326028093250282E590E09093240267
:1004F0008093230210921C0210922A028CCF82E079
:1005000090E0909328028093270282E990E09093F4
:1005100026028093250282E590E090932402809346
:10052000230210922D0280911C0280932E021092C1
:100530002A0210922C0210922B026DCF90912A0267
:100540009F5F90932A0280912B02880FC017D107DA
:10055000E0F080932B02983009F0F7CEE0912D0265
:10056000E630A9F4109228021092270282E990E066
:10057000909326028093250282E590E090932402D6
:100580008093230210922A02DACE8160E2CF83E0C8
:1005900090E0909328028093270281E08E0F809351
:1005A0002D0290912B02F0E0E95DFD4F9087809144
:1005B0002C02892780932C02C2CEC017D10738F5B0
:1005C000109228021092270210922A0282E990E0EB
:1005D000909326028093250282E590E09093240276
:1005E0008093230280912C028111B3CE88E0EDE24A
:1005F000F2E0A5E3B2E001900D928A95E1F78091D7
:1006000029028F5F8093290210921C0298CE80915C
:100610002D02863009F4A6CF82E090E09093280264
:100620008093270210922A0210922B0288CE1092F9
:100630001C02B2CE84E08093570208950895B0E082
:10064000A0E0E5E2F3E00C94890D6C017B018B01E5
:10065000040F151FEB015E01AE18BF08C017D107CC
:1006600059F06991D601ED91FC910190F081E02D56
:10067000C6010995892B79F7C501CDB7DEB7EAE048
:100680000C94A50DFC01538D448D252F30E0842F53
:1006900090E0821B930B541710F0CF9608950197AA
:1006A0000895FC01918D828D981761F0A28DAE0F97
:1006B000BF2FB11D5D968C91928D9F5F9F73928F1E
:1006C00090E008958FEF9FEF0895FC01918D828D4A
:1006D000981731F0828DE80FF11D858D90E0089517
:1006E0008FEF9FEF0895FC01918D228D892F90E06F
:1006F000805C9F4F821B91098F739927089581E633
:1007000092E00E94730321E0892B09F420E0822FFC
:10071000089580E090E0892B29F00E947F038111E9
:100720000E9400000895FC01A48DA80FB92FB11DEF
:10073000A35ABF4F2C91848D90E001968F73992717
:10074000848FA689B7892C93A089B1898C918370F5
:1007500080648C93938D848D981306C00288F389EE
:10076000E02D80818F7D80830895EF92FF920F931B
:100770001F93CF93DF93EC0181E0888F9B8D8C8D4D
:10078000981318C0E889F989808185FF13C09FB745
:10079000F894EE89FF896083E889F9898081837004
:1007A000806480839FBF81E090E0CDB7DEB7E6E054
:1007B0000C94A90DF62E0B8D10E00F5F1F4F0F73D9
:1007C0001127E02E8C8D8E110CC00FB607FCFACFCE
:1007D000E889F989808185FFF5CFCE010E949303D6
:1007E000F1CFEB8DEC0FFD2FF11DE35AFF4FF0829F
:1007F0009FB7F8940B8FEA89FB8980818062D1CF03
:10080000CF93DF93EC01888D8823B9F0AA89BB8947
:10081000E889F9898C9185FD03C0808186FD0DC032
:100820000FB607FCF7CF8C9185FFF2CF808185FF53
:10083000EDCFCE010E949303E9CFDF91CF910895D0
:10084000CF93C82F80E090E0892B51F080913F0238
:100850008C1731F081E0C11101C080E00E940000DE
:10086000C0933F02CC2339F12FB7F89480915902FD
:1008700090915A02A0915B02B0915C022FBF482F69
:10088000392F2A2F8B2F409340023093410220931F
:1008900042028093430280E090E0892B51F08091E6
:1008A0003F028C1731F081E0C11101C080E00E944D
:1008B0000000CF91089540E030E020E080E0E3CFF9
:1008C0009C01089769F4662301F184E08093570244
:1008D00080E090E0892B89F0C9010E940000089512
:1008E00080E090E0892BC1F781E0211594E0390781
:1008F00008F080E0611102C0089581E027503109BD
:100900002230310538F480E0089580E090E0892BB2
:1009100019F781E0089580E090E0892B29F080911B
:10092000560283FD0E9400000895FC010190002002
:10093000E9F73197AF01481B590BBC0181E692E002
:100940000E941F0308958F929F92AF92BF920F93C0
:100950001F93CF93DF93CDB7DEB7A1970FB6F8946F
:10096000DEBF0FBECDBF19A2423008F44AE08E01AF
:100970000F5D1F4F842E912CB12CA12CA501940149
:100980000E945F0DE62FB901CA01EA30F4F4E05D80
:10099000D801EE938D01232B242B252B79F790E0A2
:1009A00080E0109719F0CD010E949504A1960FB632
:1009B000F894DEBF0FBECDBFDF91CF911F910F9195
:1009C000BF90AF909F908F900895E95CE1CFCF9357
:1009D000DF930E949504EC0182E291E00E9495046D
:1009E0008C0F9D1FDF91CF9108958F929F92AF92B0
:1009F000BF92CF92DF92EF92FF9285E291E00E9448
:100A0000E70481E00E948C000E9432014B015C01EE
:100A100088E0C82ED12CE12CF12C0E9432016819FB
:100A200079098A099B09683E734081059105A8F3FD
:100A300021E0C21AD108E108F10888EE880E83E0AF
:100A4000981EA11CB11CC114D104E104F10429F7C2
:100A500080E00E948C00FF90EF90DF90CF90BF90DD
:100A6000AF909F908F9008950E94F50408950E9482
:100A700095040895CF92DF92EF92FF92CF93DF9388
:100A80006C01990FEE08FF08F7FE19C06DE281E6D0
:100A900092E00E94B503EC0166277727CB016C1921
:100AA0007D098E099F094AE00E94A3048C0F9D1FB7
:100AB000DF91CF91FF90EF90DF90CF9008954AE0C3
:100AC000C701B6010E94A304F3CF0F931F93CF93E6
:100AD0008C0181E391E00E943705C0E0F80180813C
:100AE000C81780F4EC0FF11D628170E090E080E0A7
:100AF00040E10E94A30460E281E692E00E94B50317
:100B0000CF5FECCF82E291E00E949504CF911F91DC
:100B10000F910895AF92BF92CF92DF92EF92FF9222
:100B20000F931F93CF935C016B01C42F790186E56E
:100B300091E00E943705B50190E080E04AE00E9414
:100B4000A30483E491E0CD2811F480E491E00E94B5
:100B500037058DE691E00E9437056C2F70E090E03C
:100B600080E04AE00E94A30486E791E00E943705F6
:100B7000C8010E943A058FE791E00E943705EA9488
:100B8000EF2871F08EE491E00E94E704CF911F916D
:100B90000F91FF90EF90DF90CF90BF90AF900895AE
:100BA00086E491E0F1CF0E942004EDE3F2E081E0E1
:100BB00087831086E6E4F2E088E0DF011D928A95E3
:100BC000E9F7089520E030E0232B19F00E9400009F
:100BD00008950E94350D0895CF93DF93209153021D
:100BE000309154022F3F320721F0C901DF91CF919C
:100BF00008958091560287FF2BC086FF0FC089E0C1
:100C000090E00E94E205C82F81E090E00E94E2059A
:100C10009C2F909354028093530215C089E090E07A
:100C20000E94E205C82F81E090E00E94E20590E476
:100C3000C99F90011124207C31708F73282B309331
:100C40005402209353028091530290915402CECFCC
:100C500085FF0CC081E190E00E94E205C82F82E18F
:100C600090E00E94E205C05CDD0BD2CF81E090E015
:100C70000E94E20590E0CDCFCF92DF92EF92FF92FB
:100C80000F931F93CF936C017B018A01C22F8EE8D3
:100C900091E00E943705B60190E080E04AE00E94B2
:100CA000A3046CE4EF2809F463E581E692E00E9476
:100CB000B50384EA91E00E943705C8010E943A0515
:100CC0000330110509F490C090F40130110509F4C6
:100CD00056C089EC91E00230110509F464C0CF914F
:100CE0001F910F91FF90EF90DF90CF900895043007
:100CF000110509F47CC08AEE91E00530110579F701
:100D00000E9437058AE891E0C0FF02C086E891E0C2
:100D10000E9437058AE891E0C1FF02C086E891E0B1
:100D20000E9437058AE891E0C2FF02C086E891E0A0
:100D30000E9437058AE891E0C3FF02C086E891E08F
:100D40000E9437058AE891E0C4FF02C086E891E07E
:100D50000E9437058AE891E0C5FF02C086E891E06D
:100D60000E9437058AE891E0C6FF02C086E891E05C
:100D70000E943705C7FF33C086E891E032C08DE19D
:100D800090E00E94E20581FF0CC087EB91E00E9499
:100D900037058AE891E0C4FF02C086E891E00E942E
:100DA00037058FEB91E00E9437058AE891E0C0FF9C
:100DB00002C086E891E00E9437058AE891E0C1FF11
:100DC00002C086E891E00E9437058AE891E0C2FF00
:100DD00002C086E891E00E943705C3FDCDCF8AE8C6
:100DE00091E00E94E7047BCF83ED91E0DCCF8EEDB4
:100DF00091E086CF1F93CF93DF93EC01162F8331C1
:100E00009105D0F48131910528F48130910511F0DC
:100E1000099731F48FEF9FEF909354028093530220
:100E200080E090E0892BB1F0612FCE010E9400009C
:100E3000DF91CF911F9108954D9791F7177F1093F0
:100E4000560280913D028F73912F907C892B809365
:100E50003D02E0CFCE010E94350D1817C1F0612F81
:100E6000CE010E943D0D80E090E0892B21F0612FA2
:100E7000CE010E94000080E090E0892B41F080913B
:100E80003D0284FD04C0612FCE010E940000CE010E
:100E90000E94350DCDCFB0E0A0E0E1E5F7E00C9485
:100EA0008A0D8B01B42E690182FF1FC083FF13C01E
:100EB00061E0C8010E946004882341F06B2DC801E5
:100EC0000E94FA068B1102C0F6010995CDB7DEB774
:100ED000E9E00C94A60D60E0C8010E94600488233C
:100EE000A9F3C8010E94E205EDCF842F8770C1E00D
:100EF000D0E07E0102C0EE0CFF1C8A95E2F7D42FF1
:100F0000D870CB010E94E205C82FB4FE13C061E087
:100F1000C8010E9460048823C9F2DD2341F0CE2974
:100F20006C2FC8010E94FA068C1771F2CFCFE094A3
:100F3000CE21F6CF60E0C8010E946004882331F220
:100F4000CE21DD2319F0C111BFCFC0CFCC2309F4CE
:100F5000BBCFBCCFB0E0A0E0E0EBF7E00C948B0D92
:100F60007C016B01C42F122FD42FD07E80913D02C3
:100F700087FF25C0D03E81F580913E02882361F134
:100F800090E00E94E205D82F80913E0290E0019609
:100F90000E94E205982F8D2FE816F906E9F46C2FD0
:100FA00070E0762F662766277370612B6F5F7F4F27
:100FB0002BE834E0402F8C2F0E944B070DC080FDA2
:100FC00025C0D03609F44FC060F4D032A1F1D0343E
:100FD00009F449C0DD2319F1CDB7DEB7E8E00C9480
:100FE000A70DD03A09F46CC058F42C2F2F7141E0B2
:100FF00050E0D03889F7B601C7010E943C06ECCF1B
:10100000D03C09F466C0D03E51F2E6CF0E94EC0518
:101010008E159F05B1F2E114F10499F2DDCF8C2F0A
:101020008E70D1F680E090E0892BB1F28C2F817028
:101030000E940000D1CFCF71CF3171F6412F4F7791
:1010400071F0413071F0111F1127111F212F30E075
:101050000FE710E0B601C7010E948A05BDCF41E04D
:10106000F2CF40E0F0CF2C2F30E08C2F8F71813009
:1010700029F030F0803121F08131C1F440E001C02D
:1010800041E025FB222720F90DE110E030E0B60118
:10109000C7010E948A0580E090E0892B09F49CCF6B
:1010A0004C2FB601C7010E94000096CFC901880FDE
:1010B000991F8E71C4FB442740F9482B4250E1CF61
:1010C0002C2F2F7042E050E0C4FD95CF43E050E05C
:1010D00092CFCF71CE3139F0CF3109F07DCF212FB2
:1010E00045E050E088CF212F44E050E084CF1F92AC
:1010F0000F920FB60F9211242F933F938F939F93CC
:10110000AF93BF938091590290915A02A0915B02D4
:10111000B0915C023091580223E0230F2D3758F52F
:101120000196A11DB11D20935802809359029093FE
:101130005A02A0935B02B0935C0280915D02909191
:101140005E02A0915F02B09160020196A11DB11DE7
:1011500080935D0290935E02A0935F02B093600261
:10116000BF91AF919F918F913F912F910F900FBEA3
:101170000F901F90189526E8230F0296A11DB11D10
:10118000D2CF1F920F920FB60F9211242F933F933D
:101190004F935F936F937F938F939F93AF93BF937F
:1011A000EF93FF93E0910201F09103010995FF9104
:1011B000EF91BF91AF919F918F917F916F915F91CF
:1011C0004F913F912F910F900FBE0F901F90189548
:1011D0001F920F920FB60F9211242F933F934F93AC
:1011E0005F936F937F938F939F93AF93BF93EF938F
:1011F000FF93E0910001F09101010995FF91EF91BA
:10120000BF91AF919F918F917F916F915F914F911E
:101210003F912F910F900FBE0F901F9018951F9226
:101220000F920FB60F9211242F933F934F935F931A
:101230006F937F938F939F93AF93BF93EF93FF939E
:1012400081E692E00E949303FF91EF91BF91AF91ED
:101250009F918F917F916F915F914F913F912F91CE
:101260000F900FBE0F901F9018951F920F920FB600
:101270000F9211242F938F939F93EF93FF93E091FD
:101280007102F09172028081E0917702F091780210
:1012900082FD1BC0908180917A028F5F8F732091B5
:1012A0007B02821741F0E0917A02F0E0EF59FD4FA6
:1012B000958F80937A02FF91EF919F918F912F915B
:1012C0000F900FBE0F901F9018958081F4CFE1E62C
:1012D000F2E01382128288EE93E0A0E0B0E0848313
:1012E0009583A683B78384E191E09183808385EC25
:1012F00090E09587848784EC90E09787868780ECE0
:1013000090E0918B808B81EC90E0938B828B82ECD0
:1013100090E0958B848B86EC90E0978B868B118E7A
:10132000128E138E148E0895B0E0A0E0EAE9F9E081
:101330000C94820D789484B5826084BD84B58160FC
:1013400084BD85B5826085BD85B5816085BD809190
:101350006E00816080936E00109281008091810008
:101360008260809381008091810081608093810000
:10137000809180008160809380008091B1008460C2
:101380008093B1008091B00081608093B000809123
:101390007A00846080937A0080917A0082608093E2
:1013A0007A0080917A00816080937A0080917A003F
:1013B000806880937A001092C100E0917102F091F0
:1013C0007202C2E0C083E0916D02F0916E02108261
:1013D000E0916F02F091700280E1808310927902B7
:1013E000E0917502F091760286E08083E0917302CD
:1013F000F0917402808180618083E0917302F091AA
:101400007402808188608083E0917302F09174029D
:10141000808180688083E0917302F0917402808102
:101420008F7D808386EF91E00E94E70461E08FE08A
:101430000E94F60080E00E948C0010924E02C09341
:101440004F02E8E8F0E0E491F0E0EE0FFF1FE8590A
:10145000FF4F859194919093510280935002ECE953
:10146000F0E0E491E093520260E082E00E94F60036
:10147000E7E2F2E086E1DF011D928A95E9F782E971
:1014800090E0909326028093250282E590E090936D
:1014900024028093230281E080933D0210923E0259
:1014A0008FEF9FEF90935402809353021092550256
:1014B00083E080932202809152028093210263E0B4
:1014C00070E080914E020E94D4008DE190E00E9475
:1014D000E205682F6F738DE190E00E94FA06809319
:1014E00056026AE087E090E00E94FA066DE088E02C
:1014F00090E00E94FA0680E00E94D30584E0809389
:101500005702412C5524539490E0692E90E0792E97
:1015100020E0C22E20E0D22E30E0A32E30E0B32E09
:1015200040E0842E40E0942E80913F028823F1F029
:101530002FB7F8948091590290915A02A0915B02C2
:10154000B0915C022FBF40914002509141026091E6
:10155000420270914302841B950BA60BB70B459773
:10156000A105B10518F080E00E94D3058091290201
:10157000882381F1F89488E0E5E3F2E0AEEFB2E091
:1015800001900D928A95E1F710922902789480914A
:10159000FE02E82FF0E0E050FD4F863018F4119283
:1015A0008F5FFBCF8EEF92E00E9465058091000374
:1015B00081114AC090910103911146C0A114B10458
:1015C00011F00E94000080913F028823C9F181E060
:1015D0000E94200480915702882329F181149104EC
:1015E00009F43DC20E9400008823E9F0809157026F
:1015F00081508093570290E0FC01EE0FFF1FE80F2F
:10160000F91FEC5FFE4F62812081318190913D0294
:10161000906190933D02C9010E94FA0680913D02BB
:101620008F7E80933D0280E090E0892B09F47CCF8F
:101630000E947F03882309F464CF0E94000061CFD9
:1016400081E00E94D305C6CF90913F02992309F40F
:1016500085C08057803108F07EC081E00E94200460
:10166000C091FE0280914602C8130AC04C2F50E080
:1016700068E472E080E093E00E94D20D892B61F073
:101680001092450288E0EEEFF2E0A6E4B2E00190AD
:101690000D928A95E1F79ECF809145028F5F8093EE
:1016A0004502C33009F03FC090910003892F877035
:1016B00010910103853029F4109344020E94F5042F
:1016C00089CFCDE1D0E0843089F0282F30E084301C
:1016D000E8F4C0914402CC23C9F0C150DD0BCC0F1B
:1016E000DD1FCC0FDD1FC20FD31F219693FF10C04B
:1016F00061E0CE010E946004882309F46BCF612F62
:10170000CE010E94FA06181365CFD8CFE901EDCFBC
:1017100060E0CE010E946004882309F45BCFCE0113
:101720000E94E205F0CFC43009F054CF809100034D
:10173000682F70E0762F66276627737090910103FB
:10174000692B6F5F7F4F24E335E0409102038C707B
:101750000E944B073FCF80E00E94D305E091000339
:10176000EF3F59F480910103811134CFC114D104AA
:1017700009F430CF0E9400002DCFE7FD0DC000918D
:101780000303209102034091010370E060E08E2F7B
:1017900090E00E94AA071ECFE03C08F04FC1909154
:1017A0003D0297FF17CF80910103282F30E0E90118
:1017B000C095D095CC0FDD1FCC0FDD1FC07CD17044
:1017C000EF73CE2B35952795B22FB3703B2E20911A
:1017D000FE02253031F58C788C3019F50E94EC052D
:1017E0008C179D0721F0CF3FD14009F0F3CEC09177
:1017F0000103D0E0DC2FCC27CC27D37080910203EB
:10180000C80FD11D21961091030361E0CE010E9403
:101810006004612F882309F4DDCECE010E94FA0610
:10182000D9CE7E0181E0E81AF108EE0CFF1CEE0C27
:10183000FF1CE32887010F5F1F4F8091550288230B
:10184000E9F096FF3FC0C801B2010E944B0D682F1E
:1018500081E090E00E94FA06C80117FF02C08150A3
:101860009F4F692F89E090E00E94FA06611471048D
:1018700019F0C8010E9400001092550280913D02AB
:1018800080FD39C08091FE02843009F04EC0809105
:1018900001038978813009F09DCE80E090E0892BAA
:1018A00029F060910203C8010E940000A0E0B0E0AE
:1018B000AB2B09F48FCE40910203632DC8010E9427
:1018C000000088CEBE016F73772781E090E00E9410
:1018D000FA06BE0156E0759567955A95E1F789E0DD
:1018E00090E00E94FA06A0E0B0E0AB2B29F2CE0116
:1018F0000E940000C1CF86FF0CC00E94EC0580173B
:10190000910709F4BFCF0D3FB7E01B070CF0BACF2A
:1019100061CE0E94EC058C179D0709F4B3CFCF3F31
:1019200041E0D40709F4AECF55CE833069F540913C
:101930000103B42FB170EB2E43FBFF24F0F880E0DD
:1019400090E0892B31F047702F2DBE01C8010E9415
:10195000000080913D0286FF0BC0A0E0B0E0AB2B01
:1019600009F438CE4F2D6E2DC8010E94000032CEF2
:1019700080E090E0892B09F42DCE2F2D4E2D632D84
:10198000CE010E94000026CE863009F023CE809141
:101990000103982F9978913021F08F78803809F0E1
:1019A00019CE80913D0286FF25C00E94EC0580176C
:1019B0009107E1F48091020390E0382F222722273B
:1019C0003370C0910303C20FD32FD11D2196109104
:1019D000040395958795959587958370992782300F
:1019E000910589F0039709F410CFF4CD0D3F17400E
:1019F0000CF7F0CD0E94EC058C179D07D9F2CF3F74
:101A0000D140C1F2E7CD14FFE5CD61E0CE010E94E7
:101A10006004882309F4DECDCE010E94E205912FF7
:101A2000977061E070E001C0660F9A95EAF713FFC6
:101A300002C0682BF2CE60956823EFCEE83E08F036
:101A4000C9CDE05CFF0B809101030091040320915C
:101A500003034091020361E070E09E2F9ACE8FB3A2
:101A60008695817091E08927BFCDF999FECF92BD0F
:101A700081BDF89A992780B50895262FF999FECF50
:101A80001FBA92BD81BD20BD0FB6F894FA9AF99A9B
:101A90000FBE0196089597FB072E16F4009407D009
:101AA00077FD09D00E94B80D07FC05D03EF4909553
:101AB00081959F4F0895709561957F4F0895A1E29C
:101AC0001A2EAA1BBB1BFD010DC0AA1FBB1FEE1FB8
:101AD000FF1FA217B307E407F50720F0A21BB30B03
:101AE000E40BF50B661F771F881F991F1A9469F77F
:101AF00060957095809590959B01AC01BD01CF01DB
:101B000008952F923F924F925F926F927F928F92A1
:101B10009F92AF92BF92CF92DF92EF92FF920F937C
:101B20001F93CF93DF93CDB7DEB7CA1BDB0B0FB686
:101B3000F894DEBF0FBECDBF09942A883988488843
:101B40005F846E847D848C849B84AA84B984C884D9
:101B5000DF80EE80FD800C811B81AA81B981CE0FD0
:101B6000D11D0FB6F894DEBF0FBECDBFED010895B5
:101B7000AA1BBB1B51E107C0AA1FBB1FA617B707B3
:101B800010F0A61BB70B881F991F5A95A9F78095CF
:101B90009095BC01CD010895EE0FFF1F0590F491C3
:101BA000E02D0994FB01DC0104C08D9101908019A6
:101BB00021F441505040C8F7881B990B0895F894C0
:021BC000FFCF55
:101BC2001E031E030100031100C01200031D0002C8
:101BD20000000000B5031F03420300047303510316
:101BE20065030D0A006E6F74696679435641636B33
:101BF200006E6F746966794463634D73673A2000BF
:101C02002D53002D4C00466F72776172640052654D
:101C12007665727365006E6F7469667944636353A7
:101C2200706565643A20416464723A200020537002
:101C32006565643A20002053746570733A20002071
:101C42004469723A200031202000302020006E6F5B
:101C52007469667944636346756E633A20416464CD
:101C6200723A2000202046756E6374696F6E2047B9
:101C7200726F75703A200020464E20303A200020C4
:101C8200464E20312D343A200020464E20352D3844
:101C92003A200020464E20392D31323A200020468B
:101CA2004E2031332D32303A200020464E20323140
:101CB2002D32383A20004E4D524120446363204D6C
:101CC200756C746966756E6374696F6E20446563C2
:0C1CD2006F6465722044656D6F20310066
:00000001FF
